:040255007FF47E01B3
:10025900E4FDFCC3ED9FEC9E5015E4FBFA0BBB00DB
:0F026900010AEB64FA4A70F50DBD00010C80E448
:010278002263
:100291007E08EF30E704D2918002C291C290D290E1
:0602A100EF25E0FFDEEC9A
:0102A7002234
:0A02D400C294C293120291D2942248
:0502A8001202D47F01E9
:0C02AD00E4F512C294D293120291D29494
:0102B9002222
:04027900AD07AC061B
:10027D00E4F50AC294D293AF04120291AF051202B3
:03028D0091D29477
:01029000224B
:0E02BA00C2927F647E00120259D29202025953
:100003001202BA7F111202D47F787E001202597F46
:10001300B11202A87F2C1202AD7F2D1202AD7FB266
:100023001202A87F2C1202AD7F2D1202AD7FB312F4
:1000330002A87F2C1202AD7F2D1202AD7F011202A6
:10004300AD7F2C1202AD7F2D1202AD7FB41202D40C
:100053007F071202AD7FC01202D47FA21202AD7FCE
:10006300021202AD7F841202AD7FC11202D47FC59A
:100073001202AD7FC21202D47F0A1202ADE4FF1254
:1000830002AD7FC31202D47F8A1202AD7F2A12020D
:10009300AD7FC41202D47F8A1202AD7FEE1202AD8D
:1000A3007FC51202D47F0E1202AD7F361202D47FB7
:1000B300C01202AD7FE01202D47F0F1202AD7F1A8D
:1000C3001202AD7F0F1202AD7F181202AD7F2F1205
:1000D30002AD7F281202AD7F201202AD7F221202F1
:1000E300AD7F1F1202AD7F1B1202AD7F231202AD43
:1000F3007F371202ADE4FF1202AD7F071202AD7F1C
:10010300021202AD7F101202AD7FE11202D47F0F03
:100113001202AD7F1B1202AD7F0F1202AD7F1712C9
:1001230002AD7F331202AD7F2C1202AD7F29120282
:10013300AD7F2E1202AD7F301202AD7F301202ADC1
:100143007F391202AD7F3F1202ADE4FF1202AD7F91
:10015300071202AD7F031202AD7F101202AD7F2A98
:100163001202D4E4FF1202AD7F021202ADE4FF12C9
:1001730002AD7F821202AD7F2B1202D4E4FF120282
:10018300AD7F031202ADE4FF1202AD7F831202AD15
:100193007FF01202A87FF61202D4E4FF1202AD7FB1
:0E01A3003A1202D47F051202AD7F290202D467
:1001B1008F827F2A1202D47F021202ADAF82EF2416
:1001C10002FF1202AD7F021202ADEB2402FF120206
:1001D100AD7F2B1202A8ED04FF1202AD7F011202C6
:0D01E100ADE51104FF1202AD7F2C0202D427
:04022B008E088F09A1
:10022F0075100075119F7B7F7A00E4FDFCFFFE12B5
:10023F0001B1E4FBE4FAAF09AE081202790ABA8001
:05024F00F50BBBA0EF60
:010254002287
:1001EE0053B1FB43B204120003D2957F007EF81286
:1001FE00022B1202557FE07E0712022B1202557F50
:10020E001F1E12022B120255E4FF1E12022B1202A7
:0D021E005574FFFFFE12022B12025580CE18
:030000000202C831
:0C02C800787FE4F6D8FD7581120201EE8B
:00000001FF
