:10000300D6D0CEC4CFD4CABEB2E2CAD400D6D0BEF4
:10001300B0D4B000BBB6D3ADC4FA00D2F2CEAAD7E7
:10002300A8D7A200CBF9D2D4D7A8D2B500D6D00195
:10003300000100010001003FF821082108210821E7
:100043000821083FF821080100010001000100CE4A
:10005300C4020001000100FFFE1010101008200868
:10006300200440028001000280044008203018C0B0
:1000730006CFD400001FF0101010101FF010101046
:10008300101FF0044044442444144814500440FF17
:10009300FE0000CABE00003FF800000000000000A0
:1000A30000FFFE010001001110110821044102812B
:1000B3000205000200B2E2000427C414441454856C
:1000C3005445544554155415542554E554210422DC
:1000D30084224424140808CAD4002820241024109D
:1000E3002007FE0020F02017E01120111011101539
:1000F3001019CA170A02060002D6D0010001000136
:100103000001003FF8210821082108210821083FA8
:10011300F821080100010001000100BEB01FF0102A
:10012300101FF010101FF00100FFFE00001FF01061
:100133001010101FF00100210845040200D4B00084
:10014300007FFC40044FE4400440045FF4448444D3
:1001530084448448944894507440047FFC4004D7FA
:10016300D300007FF800100020004001800100FF51
:10017300FE01000100010001000100010005000271
:1001830000BBB600800080FC8004FC050449082AFB
:10019300401440104028A024A045108110020804F8
:1001A300040802D3AD00002080133C122402240271
:1001B30024F2241224122412B4132812201020280B
:1001C3002047FE0000C4FA0900090011FC32045460
:1001D30048995011481244144411401080020051B0
:1001E30004511290120FF0D2F200007FFC40044140
:1001F30004410441045FF4410442844244442448DA
:1002030014501440047FFC4004CEAA0100210011C5
:1002130000110001007FF802080208028804480464
:100223004808081008200840508020D7A801000182
:100233000001003FF802000200FFFE040008000F67
:10024300F0001000200640018000400020D2B504D9
:1002530040044004400440444424442448144814C3
:100263005014600440044004400440FFFE0000CBEF
:10027300F90208071C38E0208020803E8022FE22FD
:100283008822883E88208820884108410882080403
:1002930008D2D400100410221021102110201020A5
:1002A30010202020202020244028503088210402C0
:1002B300020402D7A200802040100017FC804040B7
:1002C300404040104013FC2040E0402040204020AC
:1002D300402FFE0000A1A10000000000000000006C
:1002E300000000000000000000000000000000000B
:0702F3000000000000000004
:10092B00E4FDFCC3ED9FEC9E5015E4FBFA0BBB0002
:0F093B00010AEB64FA4A70F50DBD00010C80E46F
:01094A00228A
:100981007E08EF30E704D2918002C291C290D290EA
:06099100EF25E0FFDEECA3
:01099700223D
:0A09DB00C294C293120981D2942243
:0509AF001209DB7F01CD
:0C09B400E4F51FC294D293120981D29482
:0109C0002214
:04096900AD07AC0624
:10096D00E4F517C294D293AF04120981AF051209B1
:03097D0081D29490
:010980002254
:0E09C100C2927F647E0012092BD29202092B93
:1004F0001209C17F111209DB7F787E0012092B7F60
:10050000B11209AF7F2C1209B47F2D1209B47FB24A
:100510001209AF7F2C1209B47F2D1209B47FB312D8
:1005200009AF7F2C1209B47F2D1209B47F01120983
:10053000B47F2C1209B47F2D1209B47FB41209DBE9
:100540007F071209B47FC01209DB7FA21209B47FB2
:10055000021209B47F841209B47FC11209DB7FC57E
:100560001209B47FC21209DB7F0A1209B4E4FF1238
:1005700009B47FC31209DB7F8A1209B47F2A1209EA
:10058000B47FC41209DB7F8A1209B47FEE1209B46A
:100590007FC51209DB7F0E1209B47F361209DB7F9B
:1005A000A01209B47FC81209B47FE01209DB7F0FE3
:1005B0001209B47F1A1209B47F0F1209B47F1812FE
:1005C00009B47F2F1209B47F281209B47F201209C1
:1005D000B47F221209B47F1F1209B47F1B1209B421
:1005E0007F231209B47F371209B4E4FF1209B47FE4
:1005F000071209B47F021209B47F101209B47FE117
:100600001209DB7F0F1209B47F1B1209B47F0F128E
:1006100009B47F171209B47F331209B47F2C120971
:10062000B47F291209B47F2E1209B47F301209B4A5
:100630007F301209B47F391209B47F3F1209B4E444
:10064000FF1209B47F071209B47F031209B47F10A7
:100650001209B47F2A1209DBE4FF1209B47F0212E7
:1006600009B4E4FF1209B47F821209B47F2B120986
:10067000DBE4FF1209B47F031209B4E4FF1209B4EA
:100680007F831209B47FF01209AF7FF61209DBE411
:10069000FF1209B47F3A1209DB7F051209B47F29E2
:0306A0000209DB71
:1008C2008F827F2A1209DB7F021209B4AF821209DA
:1008D200B47F021209B4AF031209B47F2B1209DBF1
:1008E2007F021209B4ED2402FF1209B47F02120939
:0E08F200B4E51E2402FF1209B47F2C0209DBBC
:10094B008A318B32EF2401FBE43EFAED2401F51ED4
:0E095B00E43CF51D1208C2AF32AE310209694C
:040900008E088F09C5
:10090400751D00751E7F7BA17A00E4FDFC7F01FE4E
:100914001208C2E4FBE4FAAF09AE081209690ABA84
:06092400A0F50BBB81EF02
:01092A0022AA
:0A06A30074FFFBFA7F207C007E004C
:0C06AD008E088F098C0A8D0B8A0C8B0DB7
:1006B900751500751615AB10AA11A91212087070DC
:1006C900030207EBC3948050030207DDE4F513F539
:1006D90014C3E5149516E513951540030207C4AB39
:1006E90010AA11A912120870FF90003075F022E5C6
:1006F900141208B6E51375F022A42583F583E49353
:100709006F60030207B9900001120889FF90003158
:1007190075F022E5141208B6E51375F022A42583B5
:10072900F583E4936F60030207B9E509240FFBE43D
:100739003508FAE50B240FF51EE4350AF51DAD0B56
:10074900AC0AAF09AE081208C2E4FBE4FA90003221
:1007590075F022E5141208B6E51375F022A4258375
:10076900F583E5822BF582E43583F583E493FD3344
:1007790095E0FC74807E00A802088006CEA2E713EB
:10078900CE13D8F8FFEE5CFEEF5D4E6006AF0DAEFE
:100799000C8010E50D650F7004E50C650E6007AF60
:1007A9000FAE0E1209690ABA08A30BEB6420709BFD
:1007B9000514E514700205130206DA74022512F510
:1007C90012E43511F51174102509F509E43508F518
:1007D900080206BF74012512F512E43511F511025C
:0207E90006BF49
:0107EB0022EB
:0C02FA008E208F218C228D238A248B25DE
:1003060085202F852130AB28AA29A92A12087070CA
:10031600030204EFC3948050030204E1E4F52DF5D3
:100326002EAB28AA29A92A120870FF90003075F072
:1003360022E52E1208B6E52D75F022A42583F58355
:10034600E4936F60030204B4900001120889FF90E1
:10035600003175F022E52E1208B6E52D75F022A4BF
:100366002583F583E4936F60030204B4F52BE4F56B
:100376002C90003275F022E52E1208B6E52D75F0A8
:1003860022A42583F58375F002E52B1208B6E493C3
:10039600FD3395E0FC74807E00A82C088006CEA272
:1003A600E713CE13D8F8FFEE5CFEEF5D4E601C7EC1
:1003B60000E521252CFFEE3520FE7C00E523252BCC
:1003C600FDEC3522FCAB25AA248026E525652770A1
:1003D60004E5246526601D7E00E521252CFFEE350B
:1003E60020FE7C00E523252BFDEC3522FCAB27AA5D
:1003F6002612094B052CE52CC394085003020377FB
:10040600E4F52C90003375F022E52E1208B6E52DA2
:1004160075F022A42583F58375F002E52B1208B644
:10042600E493FD3395E0FC74807E00A82C088006DA
:10043600CEA2E713CE13D8F8FFEE5CFEEF5D4E605A
:1004460024AF2C7E00E521252CCFEE3520CF2408C5
:10045600CF3400FE7C00E523252BFDEC3522FCABDA
:1004660025AA24802EE52565277004E524652660E7
:1004760025AF2C7E00E521252CCFEE3520CF240894
:10048600CF3400FE7C00E523252BFDEC3522FCABAA
:1004960027AA2612094B052CE52CC3940850030203
:1004A6000409052BE52BC394105003020374052E93
:1004B600E52E7002052DC39432E52D9400500302FB
:1004C60003277402252AF52AE43529F5297410250F
:1004D60021F521E43520F52002030C7401252AF5C7
:0904E6002AE43529F52902030C72
:0104EF0022EA
:1007EC0074FFFFFE120900750EFF750FE07510FF08
:1007FC007511007512037B1F7A007D0A7F1012069B
:10080C00A974FFF50EF50FF5107511007512107B1C
:10081C00007AF87D1E1206A774FFF50EF50FF51081
:10082C007511007512177B1F7A007D327C007F28B2
:10083C007E001206AD750E00750F1F7510FF751139
:10084C000075121E7D461206A3750E00750F1F75DE
:10085C0010FF7511007512277D5A1206A37F087EB2
:04086C000702092B4B
:1009980053B1FB43B2041204F0D2951207EC7FACBA
:0709A8007E0D12092B80F403
:030000000209CF23
:0C09CF00787FE4F6D8FD758132020998AB
:10087000BB010689828A83E0225002E722BBFE0286
:09088000E32289828A83E49322B9
:10088900BB010CE58229F582E5833AF583E0225024
:1008990006E92582F8E622BBFE06E92582F8E2226E
:0D08A900E58229F582E5833AF583E4932288
:0C08B600A42582F582E5F03583F583224D
:00000001FF
